S01600004C45445374726970535049424732322E7333371E
S21400600000800020DD9F0000D99F0000D99F00007F
S214006010D97D0000D99F0000D99F0000D99F0000BD
S214006020D99F0000D99F0000D99F0000D99F00008B
S214006030D99F0000D99F0000D99F0000D99F00007B
S214006040D99F0000D99F0000D99F0000D99F00006B
S214006050D99F0000D99F0000D99F0000D99F00005B
S214006060D99F0000D99F0000D99F0000D99F00004B
S214006070D99F0000D99F0000D99F0000D99F00003B
S214006080D99F0000D99F0000D99F0000D99F00002B
S214006090D99F0000D99F0000D99F0000D99F00001B
S2140060A0D99F0000D99F0000D99F0000D99F00000B
S2140060B0D99F00005DE90000D99F0000F9F20000BA
S2140060C0C1F20000BDF2000015EB0000F5F2000082
S2140060D0C5F20000CDF20000C9F2000059F300003E
S2140060E085D60000E9D6000039F30000D99F0000ED
S2140060F0D99F0000D99F0000D99F0000D99F0000BB
S214006100D99F0000D99F0000D99F0000D99F0000AA
S214006110D99F0000D99F0000D99F0000D99F00009A
S214006120D99F0000D99F0000D99F0000D99F00008A
S214006130D99F0000D99F0000D99F0000D99F00007A
S21400614010B5054C237833B9044B13B1044800E06E
S21400615000BF0123237010BD1801002000000000BE
S2140061606443010008B5034B1BB10349034800E034
S21400617000BF08BD000000001C01002064430100B1
S214006180A3F5803A704700BF174B002B08BF134B90
S2140061909D46FFF7F5FF00218B460F461348144A2D
S2140061A0121A09F04EFF0E4B002B00D098470D4BED
S2140061B0002B00D098470020002104000D000D4859
S2140061C0002802D00C4800E000BF09F009FF2000BC
S2140061D0290002F0C9FA09F0EFFE00BF000008002F
S2140061E000000000000000000080002018010020D1
S2140061F03C1A00200000000000000000BFF34F8F94
S2140062000549064BCA6802F4E0621343CB60BFF34D
S2140062104F8F00BFFDE700BF00ED00E00400FA0569
S214006220024610B500B3114B1968888890421BD3FC
S21400623098880024904281BF012009689880996060
S2140062409868998828B904B198604FF6FF729A80CA
S21400625009E08A4204D001310124006889B2F1E7DE
S2140062600CB19A80986010BD0020FCE74007002023
S21400627000239B6AB3F5C04F03D21968064A9142C1
S21400628003D00023037083607047012202709A686F
S2140062909B694260F7E700BF07B0CD5E10B50C46BD
S2140062A030B90448FFF7E4FF042304302060A380DD
S2140062B0002010BDF401002000239B6AB3F5C04FF8
S2140062C005D21B6BB3F5C04F01D29B6B184740F24B
S2140062D00110704700239B6AB3F5C04F05D21B6BB5
S2140062E0B3F5C04F01D2DB6B184740F20110704780
S2140062F0024BD86880B28002704700BF0080E00F73
S2140063007FB503466D460E4A02F110062C4610680D
S2140063105168083203C4B2422546F7D15A1E0DF121
S2140063200F010F3311F8010912F8014F844204D10E
S2140063309A42F7D1012004B070BD0020FBE700BFF1
S214006340F001010070B5154E306810BB144B154CAB
S214006350E41A154B1C4424F4FF5424F01F04FFF7E2
S214006360C7FF844214D2656BA5B1FFF7C1FF854213
S21400637010D2FFF7BDFF05F1400383420AD8284636
S214006380FFF7BEFF30B1EB6933F0080302D034608C
S214006390306870BD04F50054E1E700BF98010020A6
S2140063A01000002018010020AF630100034B044AD0
S2140063B09979117500221A60704700BFDC0D002025
S2140063C0D80600200022134630B58BB0D910415CA9
S2140063D003F007042141CC0742BF0AA9891801F837
S2140063E0283C03F1010348BF0132252BEED10023E0
S2140063F00C4CD910415C03F007052941C9075FBF63
S214006400B3FBF2F102FB11310AAD49194CBFD9B208
S21400641011F8281C0133252B04F8011BE9D10BB019
S21400642030BD00BF0207002010B5034CA01DFFF7CB
S214006430C9FF0023236010BDDC0D002010B540F21C
S214006440E244074A6043136800F5807004FB01319C
S214006450536801EB500118441160506010BD00BF36
S214006460D80600200A20D0B50B4CE38C584309F020
S21400647007FB0646A08C0F4609F002FB0022074BDE
S21400648009F068FB02460B463046394609F08CFC9C
S21400649009F072FD2083D0BDD80600200000F43F2E
S2140064A010B5094CB4F80710A079FFF7C7FFA3682A
S2140064B0B4F80D10054AC3F30F239384D184FFF775
S2140064C0D1FF0023236010BDDC0D0020D80600207D
S2140064D0837DDB0701D5808A7047D0E901239B1AAC
S2140064E044BF828A9B1898B270474369416CDA1D94
S2140064F01439B2FBF1F28069013203EBC2020430B8
S21400650000EB4200DA1CB2FBF1F203EBC2030333EA
S214006510B3FBF1F3023301FB03007047F7B5074600
S2140065200E4600257C6CA819644280EA06031C40CF
S21400653003D02C46204603B0F0BDFB6B01225B69FE
S21400654001A99847019B0133F4D10435EAE700001E
S21400655003460846EFF3108172B6DB6B014ADB6830
S21400656011601847D40D002000234FF0FF3230B5DD
S21400657044689C4202D10023037230BD016801EBDF
S214006580C30541F833206A600133F2E72DE9F04392
S2140065904668002E45D0056898464FF0000CA94680
S2140065A0AE4655F83C400CF1010CC4F31307013419
S2140065B001D0B94217D0B4450EF1080EF1D12F46DE
S2140065C0002403E0B44207F1080712D055F834302F
S2140065D001340133F6D1C1F3130141EA0851C7E98A
S2140065E00012BDE8F08341EA0851CEE90012BDE88A
S2140065F0F083B8F1030F14D0002303E0B34209F18F
S21400660008090ED055F833400133C4F30754032C61
S214006610F4D1C1F3130343EA0853C9E90032BDE8D5
S214006620F08301230372BDE8F08300BF4FF400320D
S214006630064B00209A6641F6713203F51C33DA6386
S214006640012203F50053DA60704700BF0090004057
S21400665041F671320121064BDA6303F50052D16030
S2140066600022DA634FF40032A3F518339A667047B7
S214006670000003407047036813F07E0F03D14068A4
S21400668020F07C40704713F078001CBF03F07F03B7
S214006690D81F704737B5054601F10C04436901A9B8
S2140066A0012220469847BDF804300122009369462F
S2140066B02046AB69984703B030BD202A0B681EBF42
S2140066C04FF0FF3191408B43590801F055315B1A6A
S2140066D003F033319B0803F033330B44017803EBAC
S2140066E013130A444FF0013103F00F334B43A2EB70
S2140066F013630370704737B5044600251B22011D3F
S2140067000DF107008DF80750FFF7D7FF63689DF877
S2140067100720B2EBD36F03D123F0784003B030BD2F
S2140067201B2204F108018DF80750FFF7C6FFA0688A
S2140067309DF80730B3EBD06F0ABFC0434FF0FF3071
S21400674020F07840EAE74BF29A22036810B5B2EBE5
S214006750134F044613D19BB2012B13D1FFF7CBFF87
S21400676001300CD04FF6FF72E068B2EB104F4FEAE4
S214006770104309D180B2C01A18BF012010BD23688B
S214006780013303D00420F9E70220F7E70320F5E7FA
S2140067900C4B10B50C4CE41A0C4B1C4424F4FF5460
S2140067A024F01F04FFF7A4FDA04202D800242046D0
S2140067B010BD2046FFF7C7FF0128F8D904F500549E
S2140067C0F0E700BF1000002018010020AF630100B2
S2140067D0F0B50546002687B0EC69013CB44203D804
S2140067E00C46204607B0F0BD01B14C1E6F6C286801
S2140067F0EB6B05225B6901A907FB0400984701A81B
S214006800FFF7A1FF0128ECD921460136E4E7F0B5F1
S21400681004680646091B446C0025B1FBF4F487B0F7
S214006820F36930685A1E9542776C06D3716C3068EF
S21400683001FB0400143007B0F0BD0134B4FBF3F1E3
S21400684003FB1144F36B05225B6901A907FB0400F7
S214006850984701A8FFF777FF0128E7D90135DFE75A
S2140068602DE9F04F144607460D469946C36B89B08E
S21400687001225B6905A960689847FB6B01225B698A
S214006880284604A99847059B5A1C06D10020A360F9
S214006890A075607509B0BDE8F08F01224FF0000CBE
S2140068A0A275227E049904EBC202D561A2F820C02C
S2140068B06668C1F3D310AE4201F07F020BD14FF0F1
S2140068C0FF3320602275A360237D043B022B25D86E
S2140068D00020A075DEE726688642207D18BF84F873
S2140068E016C090421CBF0020A07503F07F00012850
S2140068F08CBF00200120012A8CBF0022012290427A
S2140069001CBF0022A27511F07E0F03F07E0300F07C
S214006910E980002BD8D10023A375D5E711F07E0FB0
S2140069200FD1FB6B022228465B6906A9984706A88A
S214006930FFF7A1FE237D032B3BD8DFE803F03535B8
S214006940040904A8F4E7CC21227E04EBC2021184D9
S214006950664AD35C049E129A16F07E0B18BF002679
S2140069601370237E08BFC6F3C16604EBC3035FFA49
S21400697086FAB3F8208083F822A0BBF1000F00F05F
S2140069808C8000231B2204A906A88DF81830FFF778
S21400699094FE9DF81830049AB3EBD26F0CBF012317
S2140069A000230422637594E0227E04EBC202108466
S2140069B0CEE7227E062B04EBC2021084C8D9012340
S2140069C0C8E794F816B0BBF1000F00F08880B8F165
S2140069D0000F09D1DEB10123617EE37500293CD1A9
S2140069E09E4218D1667614E07B6CA818594285EA58
S2140069F0000C1CEA010F1CBF0021A175591E0140A6
S214006A005B1A984569D8A37D002BE3D167E0E37D48
S214006A10A3B94FF0000B28F003002844104418F0E8
S214006A20030F7B6C18BF04305B4285EA00021342FA
S214006A3003D029463846FFF7EAFEA060A27D12B1D1
S214006A40236943442361237E012B0DD8013323762B
S214006A50B9F1000F0BD1A07D1CE7012EEED0BAF1E4
S214006A60030F08BFA376D4E70023A375F3E7002A35
S214006A70F1D0E37D002BEED0BBF1000FEBD1032E5F
S214006A80E9D0A1684B1CE6D0129B224600933846FC
S214006A900123FFF7E5FEA075DDE7FB6B02225B69CD
S214006AA006A928469847202206A90DF10F008DF862
S214006AB00FB0FFF702FE1A2207A9FFF7FEFD9DF8AA
S214006AC00F30079AB3EB926F0CBF01230023082206
S214006AD06375637D002B7FF474AF0023A3754FF0BE
S214006AE0000BABE7002B3FF4EFAE14E7B802010053
S214006AF013B50C46002100932176134661682246A2
S214006B00FFF7AEFE18B1E37D03B1A07EA075A07DB1
S214006B1002B010BD70B50025044686B00562E36974
S214006B20AB4202D8206A06B070BD666C2068E36B84
S214006B3005225B6906FB050001A9984701A8FFF737
S214006B4002FE012898BF236A05F101059CBF0133A8
S214006B502362E4E7F0B5002504462E4687B0E369D5
S214006B60B34202D8284607B0F0BD636C27680522FA
S214006B7003FB0677E36B01A95B693846984701A8D3
S214006B80FFF7E1FD012809D8204607F11401FFF7B9
S214006B90C5FC636C143B834208BF01350136DEE753
S214006BA0F0B504460D46466CE36B006887B00522D8
S214006BB05B6901A906FB0500984701A8FFF7C3FD1E
S214006BC0012804D801A8FFF796FD07B0F0BD2946B6
S214006BD02046FFF7FDFD0646676C2068E36B05223E
S214006BE05B6901A907FB0600984701A8FFF783FD2C
S214006BF0431CEAD0B54238BF0130E6E7074B9A6C33
S214006C00DB6C110A0270120C82701A0AC2701A0C1F
S214006C101B0E417002714371704700BF0080E00F89
S214006C20114BD3F8243103F00703013B052B18D88A
S214006C30DFE803F0030C11140A0F05230B4A00B11A
S214006C40026001B10B7070470623F7E70323084A7A
S214006C50F5E70423FBE70223064AF0E707230022B2
S214006C60EDE700231A46EAE700800040C0EA21016B
S214006C7000F04902002D31010D4BD3F8203103F00E
S214006C800303022B0AD0032B0BD0012B0CD10523B8
S214006C90084A00B1026001B10B7070470323064A30
S214006CA0F7E70223054AF4E700231A46F1E700BF98
S214006CB000800040C0EA210100F04902002D3101A9
S214006CC00D4BD3F8403103F00303022B0BD0032BFC
S214006CD00BD0012B0DD109234FF4004200B1026006
S214006CE001B10B7070470823F6E70B234FF47A7256
S214006CF0F4E700231A46F1E70080004010B40D4C7C
S214006D000B46D4F8204204F00304012C0AD0022CCF
S214006D100CD008B1002101600BB100221A705DF89A
S214006D20044B70475DF8044BFFF7A6BF5DF8044BB5
S214006D30FFF7C6BF008000404FF40032104B30B55E
S214006D409A6641F67132A3F580531D6F03F5203322
S214006D50C5F3033505FB0000DC690A4DDA639A6863
S214006D60A84204F4803422F4401203D9012918BF43
S214006D7042F480129A600CB10022DA6330BD00BF84
S214006D8000900040005A62024FF400321C4B70B56F
S214006D909A6641F6713301221A4D0446EE69EB639A
S214006DA0194B0021DA600223686121202B6106F46A
S214006DB0803609F015FA10B9212009F011FA0122DF
S214006DC0124BDA600EB10023EB63431C14D0A8B953
S214006DD00F4B9B680A3303F01F020123934023F0F6
S214006DE0030323449C4201D1002070BD54F8042BB9
S214006DF00132F7D00748F8E70748F6E70748F4E710
S214006E0000900040000003400010034000200340B4
S214006E100080E00F0EE000F021E000F024E000F03B
S214006E20002070B5836AADF50C7DB3F5C04F05D371
S214006E304FF4017420460DF50C7D70BD1B6B002BC6
S214006E40F6D04FF40B725B6A01A9984704460028F7
S214006E50F0D1064640F20125B36AB3F5C04FE7D23B
S214006E601B6BB3F5C04FE3D200219B6A01A898477D
S214006E70A842F1D040F20323984218BF0446D9E74F
S214006E8037B50446684680E80600251D03C885E831
S214006E9005002373069B0B4A2361BDF81C30A382B2
S214006EA000232360136853B119461B68002BFBD1DF
S214006EB00C609088013080B2908003B030BD1460C2
S214006EC0F7E700BF3807002037B50D461446FFF732
S214006ED0A7F970B1036973B14FF6FE72818A9142C9
S214006EE009D1694601200095ADF80440984703B0E3
S214006EF030BD0120FBE70E20F9E7036937B51446DD
S214006F000D46828A63B14FF6FE718A4208D1002090
S214006F1069460090ADF80400984728B103B030BD2C
S214006F202B6000202280F9E7009B2B60BDF8043020
S214006F302380F3E738B50D461446FFF771F940B1E4
S214006F4022462946FFF7D9FF10B92B6803B92080DF
S214006F5038BD0120FCE7000007B50379054A019318
S214006F60036806CA009308300223FFF789FF03B0C0
S214006F705DF804FB580301002DE9F04105469846EC
S214006F8088B0036908460E4617469847002869D118
S214006F90D8F804305B0A012B02464FEA530300F18F
S214006FA00100F8D898F8034098F802302403DB0272
S214006FB003F4006304F480541C43B8F800304FF028
S214006FC00008C3F30A032344540304F460441C4437
S214006FD0294B6FEA0444039327F07843FF430DF1EF
S214006FE007001B2202A902938DF80780FFF765FBB6
S214006FF09DF80720029B02A943EAC26327F0784760
S2140070001B22049302978DF80780FFF756FB9DF826
S2140070100720029B6FEA144443EAC26305934FF0CD
S214007020FF33012206930794AB6907A906F1100007
S214007030984701220446AB6905A906F1080098475F
S2140070400122404518BF0446AB6904A9301D984785
S2140070500122404518BF0446AB69304603A998474D
S21400706000B934B13146284608B0BDE8F041FFF714
S21400707011BB08B0BDE8F08101009AB2034B5A6D0F
S21400708012B95865A3F85810704700BFD8060020FC
S21400709070B50C4690B9FFF755F958B1436B084DDB
S2140070A003F140062A4618685968083303C2B342FB
S2140070B01546F7D1034B23600423A380002070BD40
S2140070C09C010020BC0100202DE9F0411646054633
S2140070D0FFF7FEF9B04228BF304686B20F46B046EC
S2140070E0B8F1000F09D12EB1AB7DDA0744BF23F00B
S2140070F00103AB753046BDE8F0812B68AC8A696841
S2140071001C44641AA4B2444528BF44463846224666
S21400711008F08AFF6A682B68A98A224419448A42C2
S21400712038BF13462744A8EB04041FFA84F86B60A4
S214007130D6E7F8B51F46038A04461646EBB9C57D62
S214007140DDB10123013D0B700222C57500F110016F
S214007150FFF7BAFFE37D9BB1228A3146BA4228BFC9
S2140071603A462046FFF7B0FF238A1B1A2382E37DA8
S21400717013B9638A1B1A6382F8BD00230B70EBE712
S214007180638A2382E8E72DE9F04104460F4611465C
S214007190FFF79EF9A38A181A86B28E4228BF0E46BB
S2140071A0B046B8F1000F0BD13EB1D4E901329A4295
S2140071B002BFA37D43F00103A3753046BDE8F0810E
S2140071C02368A58AA0681D442D1AADB2454528BF80
S2140071D0454639462A4608F027FFA2682368A18A52
S2140071E02A4419448A4238BF13462F44A8EB0505A3
S2140071F01FFA85F8A360D4E7F8B5044616461F467E
S21400720011B3FFF765F9A58A281A80B2012829D993
S214007210E37D63B1E068658A05702D0A07D02268B1
S214007220A38A01301344984228BF1046F4E700238F
S2140072306382A3680222E360204604F11201FFF78E
S214007240A2FFE37D0133E3753A4631462046FFF759
S2140072509AFF638A03446382E37D13B9238A034457
S2140072602382F8BD0020FCE710B5044644EA01037B
S21400727013F00303084609D1934201D1002010BD44
S21400728054F8231040F823100133F5E72146920006
S21400729008F0CAFEF2E7000013B504460379124A66
S2140072A00333019300F14403009306CA022314300B
S2140072B0FFF7E6FD94E80600238A04F12C0001930C
S2140072C0E3680093237AFFF7DBFD237A22792168AF
S2140072D0A4F8450004F1470084F8443002B0BDE845
S2140072E0104008F0A1BE00BF5003010070B50C4B63
S2140072F00C4C06460D46D4E9010183E80300184607
S214007300FFF72AFED4E904010222074B1A7283E82B
S2140073100300DE601D821846BDE87040FFF7BCBF64
S21400732094130020940201002005002038B5202286
S21400733004460D460C30002108F083FE4FF0FF3364
S214007340C4E90035A36038BD2DE9F04F0F462DED9A
S214007350028B002589B004464FF0FF311046C7F374
S214007360130B904699468DF80B50FFF7DFFF5F45ED
S2140073706AD12B46E1688B420DD0A26802EBC300AF
S21400738052F83320561C0FD0C2F3130293450BD18C
S21400739041684D1C0AD1237C002B57D1464809B0C2
S2140073A0BDEC028BBDE8F08F0133E4E74046FFF703
S2140073B0BDFF0122414620460DF10B03FFF798FB67
S2140073C00028E8D09DF80B3089F800300020E6E76A
S2140073D02068361A606CB6FBF0F63FE05046FFF7C2
S2140073E0A5FF18EE102A514620460DF10B03FFF7B5
S2140073F07FFB8446B8B1B91C03D0DAF80030BB4234
S21400740011D145469DF80B30DFF8B0E089F8003022
S214007410BEE80F000FC5BEE80F000FC59EE80700C8
S21400742085E807006546DAF8081032E0002DB5D08A
S2140074305F45CBD1394699F80030D8F8042004F1DE
S2140074400800FFF7A3F8C1E7BB1CA4D1E66A701CCE
S214007450BED12046616AFFF7BBF90646BB1C18BFC3
S214007460012308EE103ADFF854A0636A25680193FA
S214007470636C03A903FB0655E36B05225B6928468C
S214007480984703A8FFF75FF905F11403194600258E
S21400749000934A1C05D0636C009A5B424A40134234
S2140074A09CD031462046FFF793F9019BB342BDD0EE
S2140074B0002DBDD10646D8E70BE000F0F00E002008
S2140074C02DE9F04F4FF0FF3300258B464FF6FF7146
S2140074D0044600F10806C0E9091387B0C3620562D6
S2140074E005633046FFF740F82046FFF713FB0028F9
S2140074F05BD14FF6FF79D4F824800027C84514BF27
S21400750045460025E3699F4252D32046FFF702FB1B
S214007510002833D1B34D2046FFF71CFB06E1236855
S214007520E26B606C576900FB0530052201A9B8477D
S21400753001A8FFF708F90128074603D0C31EDBB2EF
S214007540012B12D829462046FFF72AFB0246012FB8
S2140075502168676CE06B434607FB051108BF0132E4
S214007560FFF70AFD2046FFF7D5FA0135E3699D428D
S214007570D5D32046FFF7CEFA0028BAD000254FF024
S214007580FF384FF6FF73C1462F46C4E90853E36938
S2140075909F423FD3A5EB0805012D5ED84FF6FF723C
S2140075A0636A93426ED1904DB5E704F14008DDE77B
S2140075B0636CE26B2068D2F814C003FB050005225A
S2140075C001A9E04701A8FFF7BEF802280FD0C8457A
S2140075D015D10BF10102606C216804F1400300FB39
S2140075E00511E06BFFF7C8FC2046FFF793FAE36946
S2140075F00135B5FBF3F2013703FB125582E7294646
S2140076002046FFF7CDFAB0F1FF3F14BF02465A46B8
S2140076100132E0E7636CE26B2068D2F814C003FB2B
S2140076200700052201A9E04701A8FFF78CF882466B
S21400763001A8FFF760F8BAF1010F0CD8484538BF2B
S2140076406762804528BF8046854238BF054681462A
S214007650236A01332362013799E74FF6FF7300254B
S2140076606362E3699D4299D2676C2068E36B0522EA
S21400767007FB05005B6901A9984701A8FFF73BF8DF
S2140076800135EEE7E26B676C2068556907FB03007F
S214007690052201A9A84701A8FFF72DF8626A616CC8
S2140076A02368524D01FB02331433A3624FF0FF33BD
S2140076B02A46E3626FF0010120460DF10303FFF74F
S2140076C043FE002836D1AD6829462046E562FEF71F
S2140076D025FF206320B92046E16AFFF798F8E062AC
S2140076E029462046FFF793F80546A36A9D4223D114
S2140076F06369656C2046A5F11402DD1CB5FBF2F546
S21400770003EBC5050335B5FBF2F5FFF723FA0235A3
S214007710A84280463ED22046616AFFF759F8002705
S214007720064604F1400AAF4218D3314D284607B04A
S214007730BDE8F08FA56AC7E729462046FEF7EEFEAD
S214007740236B29460344074623632046FFF75FF86A
S2140077500546002FC9D1C4E90B07C6E7474512D333
S214007760626C236801A902FB0639E36B05225B699C
S2140077704846984701A8FEF7BEFF534602464946CC
S214007780E06BFFF7F9FB31462046FFF721F801379B
S2140077900646C8E73046FEF7E7FE164DA16AE36ADE
S2140077A0994201D04B1C01D10025B4E62846FFF7CC
S2140077B0BDFD0122294620460DF10303FFF798F987
S2140077C030B1D5E9001230469DF80330FEF7DEFEF4
S2140077D0A9684A1CE3D169682046FFF718F80146F5
S2140077E0DDE700BF03E000F016E000F0C40E002066
S2140077F013E000F01C0F00202DE9F74F89464FF4E8
S21400780000314FEA820A324A324D9166EA69012116
S21400781002F4803341F671320093EA632E4A8046C2
S214007820D16083464A4657460FB938462EE00BF5D8
S214007830005424F4FF5424F01F04C5F814B0A4EB3D
S2140078400B04E969BC4228BF3C46490739D41646B2
S21400785056F8041B2244A96196420ED10422002148
S21400786021202A6108F0BCFC80B9212008F0B8FC71
S21400787060B93246A3443F1BD6E70821084601926A
S21400788008F0AEFC019AC0B104232B610122134B11
S214007890DA60009B13B100220E4BDA63431C13D050
S2140078A0A0B952464946404608F0DCFB00280C4882
S2140078B008BF002003B0BDE8F08F56F8041BA9618E
S2140078C0CAE74FF0FF30E1E70648F3E70648F1E77E
S2140078D000900040000003400010034000200340DA
S2140078E010E000F021E000F024E000F02DE9D34F96
S2140078F0DDF8289004460F4690461E46BDF82CA09C
S214007900FEF78EFC8346BBF1000F01D0BC4205D9C2
S2140079104FF6FF74204602B0BDE8D08F9BF80830C3
S2140079209E421CD132464146DBF8040008F09AFB22
S214007930A8B9B9F1000FEDD058460DF1020201A921
S214007940FFF7DBFA58B9019949B1BDF80230534543
S21400795005D15246484608F085FB0028DAD00134A7
S214007960DBF800B0A4B2CEE738B50C461146256861
S2140079700144AD1A2A4608F085FB256038BD000094
S2140079802DE9F84F07EE901A4C4B4D49DFF8509111
S2140079905B1A4C49D9F800600B4423F4FF53A0EB64
S2140079A00608DFF840A123F01F0398450546144655
S2140079B0CAF800807FD38718FEF7EAFE18B9FEF7EC
S2140079C097FCA0F50050874272D8D9F80000071936
S2140079D0B7F5806F03D982223B4B1A7066E0DFF85A
S2140079E0FCB0224617EE901A584408F01DFB374BA1
S2140079F0C9F800701A6822B9332F57D9DBF834203B
S214007A001A60186808EB070480451ED884421CD903
S214007A1000F110039C4249D30644751B5D442B4677
S214007A202B4A05F1100153F8040B8B4242F8040B65
S214007A30F9D12748FEF764FC10B98422224BCCE724
S214007A401022FF21284608F0FCFA224D224B07F0B0
S214007A5003072868E41B1C4058B908EA0300C0F571
S214007A6000512144FEF736FC2C6040B18522164BAF
S214007A70B3E7A04203D2211A00F50050F2E7D9F886
S214007A8000201649D21BDAF80000FEF715FC044663
S214007A90D9F80020DAF80030D21B134410490F48FA
S214007AA0CAF80030FFF760FF002CDFD1BDE8F88F82
S214007AB08322054B91E78722034B8EE718010020AF
S214007AC010000020AF6301007D0B00200C0E00208C
S214007AD0FC0D00204C13002000E0FFFF480F0020A4
S214007AE048130020800B0020002337B5114C00936C
S214007AF0437A6060D0E90021206802F00AFF238CF8
S214007B00DB050CD563680C4D1B7A2A789A4206D0A2
S214007B10012B06D0022B08D063681B7A2B7003B0AB
S214007B2030BD206802F0CAFEF6E7206802F0CCFE00
S214007B30F2E700BF501300203507002013B50D4BA9
S214007B4001281B8B0C4CADF80430ADF8003002BF9A
S214007B5002238DF80430042301A9206808BF8DF89D
S214007B60003002F0DBFD6946206802F0EDFD02B051
S214007B7010BD00BF94020100501300200022034BEA
S214007B8003211A611868012202F0E6BA5013002099
S214007B901FB502238DF80630064B5A8B59690332FF
S214007BA0ADF8042018686A4602F046FE009805B054
S214007BB05DF804FB5013002010B51E4C19462369CF
S214007BC086B023B3A2F10800084322D1032101AAFC
S214007BD0206802F02DFE636860615B7A02202376DF
S214007BE09DF8043004F11801DA1F53425341627EB7
S214007BF063F30002039B6276E361BDF8063063839D
S214007C002369984701220021206802F017FE06B07B
S214007C1010BD02F17F40014305D10021012006B0CE
S214007C20BDE81040184712F4A0411ABF00210320F7
S214007C30FF20F4E750130020F0B5194C194D87B01B
S214007C40637A20460133DBB2272B88BF2523637275
S214007C50FFF74AFF627D4FF400731349023228682B
S214007C60E768667C02F0C5FD6B68104A5B7A06F032
S214007C700106D15C30460391FFF760FF0123002226
S214007C80059303992868009204AB049702F068FAFB
S214007C9010B1FFF773FFD3E7054B2B6107B0F0BDBC
S214007CA03401002050130020480100202503010065
S214007CB0A1990000EFF3108072B67047044B054A96
S214007CC09A60D3F8882042F47002C3F88820704780
S214007CD000ED00E00060000000487047C0EA2101A7
S214007CE0084B1B6F03F00703022B04D0032B04D0B2
S214007CF0012B04D0FEE70448704704487047044848
S214007D00704700BF00800040C0EA210100F0490231
S214007D10002D310108B5FFF7E3FF044B1B6FC3F3DB
S214007D2003330133B0FBF3F008BD00BF0080004012
S214007D30114B10B5D3F80032044603F00703013B9D
S214007D40032B16D8DFE803F0020A0C1009224FF4C2
S214007D50004004B1206001B10A7010BD0822F6E7A9
S214007D600B224FF47A70F4E7FFF7D4FF0E22800A56
S214007D70EFE700221046ECE700800040B0F5807F79
S214007D8007B50ED0B0F5C07F06D080281DD103B051
S214007D905DF804EBFFF7A4BF03B05DF804EBFFF754
S214007DA0B9BF002301934FF0E0231B695B0706D59C
S214007DB0FFF7B0FF0190019803B05DF804FB0DF1EA
S214007DC0030101A8FEF77CFFF5E70020F4E70000BA
S214007DD00048704700F0490208B5FEF70FFA7047F2
S214007DE0FEE70000420910B510D0012A10D00B4B58
S214007DF00B4C022A18BF234600F01F0051B103F5B2
S214007E008053012202FA00F0186010BD1346F3E713
S214007E10044BF1E703F50053F3E700BF688000402A
S214007E206082004064800040002307B5B0F5807F84
S214007E308DF8023000F096802AD8382800F0AE8000
S214007E400CD8243883B2092B10D809280ED8DFE8BE
S214007E5000F0838383830D0D700D399D52287BD0EF
S214007E6009D83D283ED03E2800F09E809DF80200AE
S214007E7003B05DF804FB8028F8D14F4B1B6F03F06E
S214007E800703013B032BF1D8DFE803F0514B4F8685
S214007E90B0F5D06F7AD01BD8B0F5A06F7ED00BD8D7
S214007EA0B0F5806F58D0B0F5906FDFD100200DF19F
S214007EB00201FEF7B5FED9E7B0F5B06F39D0B0F5E0
S214007EC0C06FD3D100200DF10201FEF7F9FECDE719
S214007ED0B0F5006FEAD013D8B0F5E06F64D0B0F517
S214007EE0F06FC3D1344BD3F8603103F00303022B99
S214007EF05ED0032B5ED0012B14BF0023092311E0B4
S214007F00B0F5086FB2D12C4BD3F8003103F0030361
S214007F10022B4DD0032B3FD0012B14BF012303238C
S214007F2000E005238DF80230A0E70323FAE70223DA
S214007F30F8E70021204B0191D3F8803103F00303CA
S214007F40012B04D0022B14BF0B460223EAE701A83C
S214007F50FEF792FE0F23E5E700200DF10201FEF783
S214007F608BFE83E701934FF0E0231B695B0707D581
S214007F70FFF7D0FE0C238DF803309DF80330D1E7D1
S214007F800DF1030101A8FEF79BFEF6E700200DF1B8
S214007F900201FFF7CDFE69E70723C3E700200DF1D6
S214007FA00201FEF7ABFE61E7034BD3F840329CE7D5
S214007FB00823B7E70B23B5E70080004000B962B698
S214007FC0704700002DE9F04106460D4614460C4F5A
S214007FD00CB9BDE8F081EFF3108872B623462A4646
S214007FE031463846FFF708F903464046FFF7E6FFF6
S214007FF0002BEDD0E41A0026A4B21D44E8E700BF2B
S214008000B80C0020002313B501F1080421461A46D7
S214008010ADF80430ADF8060051F8080C083170B918
S2140080200BB1ADF80420042201200DEB0201083448
S214008030FFF7C8FF54F8101C39B902B010BD51F84C
S2140080400C3C1A4492B20123E6E7002034F80C2CCC
S214008050EDE700007FB500230130CDE9043380B2A0
S214008060054BCDE901016946042000930392FFF712
S214008070C9FF07B05DF804FBE201002038B50146F1
S2140080804FF04023D3F88420D206FBD4D3F88430B4
S214008090C3F38113994228D0FFF722FE0129044634
S2140080A001D1FEF749FEEFF3108072B64FF000756F
S2140080B00E4A4FF0402355664FF480624D1EAA408C
S2140080C01A675A6E950103D4D3F88420920609D510
S2140080D0FFF774FF022908D12046BDE8384000218A
S2140080E0FEF72ABED3F88420EBE738BD00600040D8
S2140080F008B5C36800209847024B1868BDE80840DA
S214008100FFF75CBFD40D00202DE9F04FDFF8E8A2A2
S21400811087B09AF8003006468946009203F0FF08BA
S2140081209BBBFEF735FB0746FEF7E2F877B1A94B97
S214008130A94CD3F800B0C3F8008094F83430A0F50A
S2140081400055ED1B53B323689F4206D000264046D9
S214008150009B1E7007B0BDE8F08F63689D42F5D1A6
S214008160A2689E4B9A42F1D1E368062BEED140F20C
S2140081706C7362699A42E9D1E26B994B9A42E5D1F7
S214008180C4F8188001238AF80030934F97F83430EB
S214008190002B40F083800026B046D8E7A36B402231
S2140081A0414604F11000019307F04BFF019B04F1D8
S2140081B00800A36340F26C736361884BC4E90075E2
S2140081C0A3600623E360FEF7CFF9854B04F1400079
S2140081D0E36301F0E7FE00285ED1636C13B16268CA
S2140081E0B2FBF3F394F84320E361002AAED0656C4B
S2140081F0002DABD0002BA9D02368B3FBF5F205FB0E
S2140082001233002BA2D16768B7FBF5F305FB137397
S214008210002B9BD17048FEF768F9874296D340F64C
S21400822034726369CC3B934290D8B5F5007F8DD30A
S21400823003216948FEF78CF9D4E90001E36B1B685B
S21400824098470546E36B0220DB689847C5B9594650
S2140082506148FFF735F9634B0546984204D1594605
S2140082605D48FFF72DF9054655B9636C276A143B40
S21400827059485F43FEF739F95B4B874238BF1D46C6
S214008280B5FA85F3E06B5B0984F83430FFF730FF0E
S214008290002D3FF477AF59E74346A3E7DFF84CA13C
S2140082A00121384646F48025FEF752F95246294603
S2140082B0384604ABFFF748F8044600283AD19DF844
S2140082C01030032B36D0022B37D0DAF81060F86B5C
S2140082D0FFF70EFF002C7FF45EAF009B1B78B342C7
S2140082E0FFF459AF97F83480B8F1000F3FF453AF5E
S2140082F001213948FEF72CF929463C4A36480DF14B
S2140083000B03FFF721F8054660B99DF80B30012BEB
S21400831074D1DAF81030B34276D13546DAF804A0D4
S214008320FB6B65B9F86BFFF7E3FE002D7FF433AF08
S214008330F6B20CE700262E4CC9E70426C7E7012252
S2140083405B6903A9504698472849039B0968C3F30D
S214008350D31291423BD113F07E0F2CD003A8FEF728
S2140083608AF94FF0040BA84228BF28460328044683
S214008370D344A5EB00050BD9FB6B49465B69820825
S2140083805846984724F003039B4404F0030499449A
S2140083905CB1FB6B01225B6904A9584698474846C6
S2140083A0224604A907F040FEA14451460A48FEF7BB
S2140083B02EFA8246B4E7FB6B02225B69504604A99C
S2140083C0984704A8FEF757F94FF0080BCBE7094D7E
S2140083D0A8E700BF14040020480E0020100E00205E
S2140083E00803010013E000F002E000F0980E002001
S2140083F00BE000F022E000F0400E0020034D0448A1
S214008400022B18BF05468DE7024D8BE70CE000F007
S2140084100BE000F011E000F000239A6A10B5B2F508
S214008420C04F0DD2EFF3108072B6064A1178137063
S214008430FFF7C4FD21B1BDE810409B6A1B6A1847D0
S21400844010BD00BFD80D002001282DE9F34740F0ED
S2140084503F818B88012B40F03D810B681C7814BB54
S2140084609E4B9F4D1C609F4B1C609F4B1C609F4B00
S2140084701C609F4B1C609F4B1C709F4B1C609F4B4F
S2140084801C602B78022B01D1FFF7C6FF01232B704F
S21400849000239B4A13709B4A13709B4A1370204616
S2140084A002B0BDE8F087032C40F00081964BDFF861
S2140084B030921C78002C40F0888099F80030002B11
S2140084C000F0E8808B4B1B78082B40F08280DFF8AA
S2140084D00C82D8F8000068B900239B6AB3F5C04F39
S2140084E05DD34FF4017041F20804A0420CBF86240D
S2140084F080246AE010F003060EBF2646C6F1040686
S214008500F6B200EB060ABAF5806F00F2C9807F4B20
S2140085103246FF211844784F07F093FD7C4A3B68AB
S21400852012680AEB03019142C8F800A000F2BC8072
S2140085306C4A15681D445544DFF8B4A125F4FF5570
S214008540DAF8000025F01F05854207D9291A00F53C
S2140085500050FDF7BFFEE8B9CAF800500020836A55
S214008560B3F5C04F18D21B6BB3F5C04F14D21D69BC
S214008570664AD8F800303968A84705463B68D8F8F8
S2140085800020564913449E1B60483E60FFF7ECF9F6
S214008590002DA1D0852418E04FF48175EEE7FEF794
S2140085A03FFC00289FD1836A0190B3F5C04FF1D2FB
S2140085B01B6BB3F5C04FEDD201219B6901A898470C
S2140085C00028E7D101224F4B1A70002389F80030AB
S2140085D065E7002B60D04A4B1B78002B5ED0474ED9
S2140085E0336843B9414B10224A491868FDF764FEC8
S2140085F00028EAD0CEE713F003021CBFC2F1040243
S214008600D2B203EB0208B8F5806F49D84248FF2182
S214008610184407F016FD414A414B334F9B1A414A16
S2140086203D68134423F4FF5323F01F03AB42C6F800
S214008630008037D8A844FEF7ABF818B9FDF758FE07
S214008640A0F5005080452FD83368DFF8A4801D447D
S214008650D8F8000025F4FF5525F01F05854208D9F7
S214008660291A00F50050FDF735FE002892D1C8F80B
S2140086700050326828493868FDF71EFE05463B68FC
S21400868032681E49134424483B60FFF76DF9002DFD
S214008690A8D07FE7812498E7842496E7802494E78F
S2140086A0822492E7872490E783248EE7042C13D154
S2140086B0132302211C4843700170FEF7DFFC1B4A9F
S2140086C01B4B128905329A801A4A1A6042789A71B0
S2140086D00024E4E60D24E2E60624E0E6780B00201B
S2140086E07E0B0020F4130020800B00200C0E0020D0
S2140086F04C130020DC010020840B002048130020CF
S2140087007C0B0020E90100207D0B0020780700206C
S214008710F8130020FC0D0020480F00201000002059
S21400872018010020AF630100F00D0020D8060020DD
S214008730DC0D0020A59E000000239B6A10B5B3F553
S214008740C04F0ED2EFF3108072B60121054A13789F
S2140087501170FFF733FC23B9BDE810409B6ADB6954
S214008760184710BDD80D00204FF040232DE9804853
S214008770D3F89430A5B05E061BD44FF00053002506
S2140087801CA81D60FDF774FDFDF7DCFDC0B1446B51
S214008790FFF7D2FF1E9B13F0040600F0BB81FDF727
S2140087A0D1FDAB6AB3F5C04FC0F0E181FFF734FEF0
S2140087B006E04FF000531A68022ADED100221A6043
S2140087C0BFF34F8FBFF36F8FB14BB2485A6AB24CAC
S2140087D022F480325A62D3F89420844222F00102B6
S2140087E0C3F8942008BF4FF08042D3F8C0101CBFD7
S2140087F020F01F02203A21F0FF0141F0A001B2F163
S214008800005FC3F8C0100CD3A44DA54E296842F0F3
S2140088100102C3F898100131C3F89C60C3F8A02089
S2140088202960844210D09D489E4B0268984923F0E8
S2140088301F0343F00303C1F89820C1F89C309A4BFD
S2140088400132C1F8A0300260BFF34F8FBFF36F8FC5
S21400885005228F4BC3F894205A6A42F480325A623B
S214008860BFF34F8FBFF36F8F904B1B68C3F3074365
S214008870012B0ED18E4B04205A6E4FF480238D4967
S214008880550358BF8C4A4B6601F51041086258BF25
S214008890536601204FF000474AF6CD344FF0402291
S2140088A04FF0070C834E854D854B77666860596C94
S2140088B01C64C2F83CC09A68014022F0740242F080
S2140088C044029A6040F209121A6140F203125A6199
S2140088D0776668605A6C1C649C680240E40700F186
S2140088E04E81012477484460002A40F04E8111B141
S2140088F0734B754A1A648020FFF796FA032842D015
S2140089004FF400226B4B02215A6645F60E0203F521
S2140089104053C3F880206D4A9162012102F58052CF
S21400892091629A6DD703FCD4694A1A619969694ABB
S21400893001F000410A439A611A6A22F00D021A6297
S2140089409A6A22F0330242F001029A62624B634A4C
S214008950996D32EA0101FBD102225C498A621A65EE
S2140089609A6D5600FCD41A6922F4700242F4001282
S2140089701A614FF00042554B9A61022203F580536C
S2140089809A6201229A624FF400230122494E484D12
S2140089907366514B02209C6A03F580539A62FFF778
S2140089A06DFB4F480021FEF7C7F92B6F04F0020459
S2140089B043F480632B674FF4803333672B6F23F0C9
S2140089C0070343F003032B67FFF7A4F94FF0402398
S2140089D0D3F8841011F01001FAD1D3F88430C3F321
S2140089E08113C3F10203002BC8BF0121FEF7A4F9CF
S2140089F0FFF776F90220FFF741FB4FF4C070FFF750
S214008A00BDF938492A4A884294BF00200120136FD6
S214008A1023F4806343EA802313678020FFF7AEF9D0
S214008A20314B98429EBF4FF48032234B1A6714B9DD
S214008A3001222E4B9A6201213020FFF7D3F9102233
S214008A401B4B2B4D9A66C3F88012184B69601B6C43
S214008A5004242B66002306AA352008A908938DF85F
S214008A601840FFF751FB0623089A8DF8164012F4BB
S214008A70803F8DF8173009AC40F0FA8221462C2052
S214008A800DF11702FFF740FB002800F09A8031E056
S214008A9000ED00E0BC000020100100209013002034
S214008AA0030000202F010020E1FFFF3F0080E00FC1
S214008AB0008000400090004000A0004000500940A8
S214008AC000400940006009403254FFFF00D00040DB
S214008AD02008B00B3C8C8C0300C000400300014013
S214008AE000B4C40480F0FA02005A620200E00040BB
S214008AF000C001A83C200DF1160207A9FFF704FBF1
S214008B0018B19DF81C0000F001009DF82A3060F3B3
S214008B10000352E0002C3FF449AEFDF7E9FB844227
S214008B20BFF444AEFDF7E4FB04F1400383423FF696
S214008B303DAE2046FDF7E4FB00283FF437AE636900
S214008B406BB9FFF769FCFDF7FDFB0446FDF7FAFB82
S214008B500F4B986023689D466368984730E69DF8FB
S214008B607030012BEDD1FDF7EDFBB36A1AE65B6AB8
S214008B7098470446FFF750FC002CE4D120E6054C4D
S214008B80A060D86AC007FCD5ABE6034A1A64AEE616
S214008B9000ED00E0006009403254FFFF296E02F845
S214008BA0011B013BFAD29DF8293063F03F038DF894
S214008BB029309DF82A3043F001038DF82A30C24B45
S214008BC05C6000244FF48071C04BC14A5961C3E910
S214008BD000229A601C82BF4BBF4A5961BF48C3E956
S214008BE000229A601C8201F011FABD48BD4B214656
S214008BF00360BD4BBD4E436001F088FAB0A3D3E9D5
S214008C0000233060CDE900234FF0FF334FF0FF32F2
S214008C1001F09CFD02224FF0FF31306801F09BFD11
S214008C203C2394221E93CDE91C329623B04D1CAFF4
S214008C3039463068CDE9204422941F9301F050FB5A
S214008C40294630682C7001F0AEFD28B10123294674
S214008C5030682B7001F0A7FD9B4C306801F02BFEAE
S214008C60B4F900202978306801F0E0F90146306850
S214008C7001F086FD6468DFF804A3002C40F0FA815A
S214008C805046FDF7BBFFB37B64F30003B3731022BB
S214008C90984B994C83F82123002183F8222304F172
S214008CA0080083F8262383F8252383F8232383F8F4
S214008CB0202383F824235C2207F0C3F942F21073C2
S214008CC08E4DE3608E4B8F4AC4E9005342F2015347
S214008CD023814FF490733384012313701B224FF0CB
S214008CE00008894DDFF898922A803E2005AA0DF1EB
S214008CF01501C9F800808DF81430FFF705FA58B151
S214008D009DF81530CDF870803946C7F80480306875
S214008D108DF8723001F01CFD11230DF113020FA91E
S214008D2036208DF81330FFF7EFF920233946392027
S214008D300DF112028DF81230FFF7E6F980BB734B87
S214008D409DF8132018681B791C903B71002A00F0D0
S214008D509A811B2A28BF1B22531D8DF812300FA99B
S214008D60531C0DF175008DF8733007F05DF914A8EB
S214008D70FDF744FF664A9DF81230128824A9FA527D
S214008D809A1C51FA82F20021149802F8201CBDF8B1
S214008D905410093342F81F0C22F81B1C8DF81230B1
S214008DA020233A200DF1110214A98DF81130FFF797
S214008DB0ABF948B9574B5A8B1B7FADF850208DF84E
S214008DC0523003238DF8113000224FF00208524B28
S214008DD05248C3E90022524B80F804800360FEF735
S214008DE0BBF85048504B80F8048003601023037291
S214008DF0FEF752FA4D484E4B80F8048003604D4B08
S214008E0080F80880C360A0F81080CDE9003843469B
S214008E1090E806001430FEF733F89DF8131000298A
S214008E2000F03C810FA84FF01008FEF75FFA4248AA
S214008E30424B80F804800360FEF78EF84048414BB2
S214008E404FF6FE7B036008233F4A0372C260A0F819
S214008E5010B080F80480FEF71FFA3C483C4AA0F8A1
S214008E6010B002600C2202723A4A4FF0020BC26047
S214008E7080F80480FEF710FA08233748374A038242
S214008E800260374A80F80480C26080F808B0FEF7B7
S214008E9003FA3448344B80F804800360334B80F880
S214008EA008B0C36001230382FEF7F6F93048314B61
S214008EB080F804800360304B80F808B062E000BFA2
S214008EC00855005100000000EC010020B80C0020FE
S214008ED0D00C0020A00B0020B80B0020600301007F
S214008EE080130020B97B000074130020501300206C
S214008EF01200002000E100E034010020D6BE898E7A
S214008F0055555500D00D0020DE010020010201005D
S214008F100B0201009402010038070020B413002061
S214008F200E02010078050020110201004C07002007
S214008F3014020100B2020100D4130020170201003F
S214008F40D0050020280201004984000028060020E1
S214008F503902010031940000700400204A0201002A
S214008F60BF020100800600205B020100240301000E
S214008F70C80400206C0201009D6200005813002007
S214008F8010040020C3604FF6FE730382FEF784F9D8
S214008F90A648A74B80F804800360A64B80F808B06C
S214008FA0C3604FF6FE730382FEF776F9A24BA34A20
S214008FB01A604FF6FF729A809DF81220202A05D874
S214008FC0931D39469E48637507F02EF89DF81120CC
S214008FD0202A06D8931D9B4884F83D3014A907F034
S214008FE023F8FEF7CBFD227C617CB2FA82F35B09A4
S214008FF063F30001237D617462F30303B27B02F026
S214009000010262F386132375637D0BB9062363752D
S214009010BAF804108C4BB068C4F816009980042186
S21400902094F83C3061F3030362F3861384F83C3013
S21400903094F83D3013B9062384F83D30B068BAF88A
S2140090400420824BC4F83E009A80FEF7F5FD804E61
S214009050804B1B782BB1DFF80C824046FDF738FAC0
S214009060F8B97D4A136923F00403136130BFEFE7B4
S214009070224696E52068B060A288A379AAF8042064
S2140090808AF8063003E608238DF81230734B1A88E8
S2140090909B78ADF875208DF8773068E603216F4829
S2140090A0C1E6EFF3108472B6002340461A460DF16F
S2140090B01901FEF73EF82046FEF780FF9DF81930AE
S2140090C013B10023C9F80030D9F80020EFF310845C
S2140090D072B6C2F501739BB2404632440DF11901D7
S2140090E0FEF727F803462046FEF768FFD9F800008B
S2140090F018440328C9F80000AFD93488231D9842C5
S214009100ABD306D870880023042806D0062800F0C3
S2140091107D810023C9F800309FE7327904F1FF3AD9
S214009120122A6B801FFA8AFA18D8012A19D9931EB8
S2140091304B4F102B15D8DFE813F0160014002C0048
S214009140140045001400F6001400990014001400E2
S21400915014001400140023011400C900522A00F061
S214009160CF800622A9E0BAF1020F40F04D81B6F892
S21400917005400022B4F5007F28BF4FF40074032397
S214009180114650463B70A7F80140FEF763FF2C805F
S214009190BFE7BAF1040F40F09080B6F80540A0B2E1
S2140091A0FDF73EF858B1027A0521022A0CBF0123CA
S2140091B00223397041687B707C80032075E06C80E8
S2140091C00A227AE0DFF8A0B0073CA4B20194CDF8FA
S2140091D000B00223B6F80710B6F80500ABF102029D
S2140091E0FEF784FB4FF6FF7A5045044604D17368B9
S2140091F0C3F30F236B80E3E700230130CDE9003390
S21400920051460223ABF1020280B2FEF76FFB072342
S21400921050451CBF00F1FF3080B23B70A7F80140FC
S214009220A7F803000022042011463EE018040020A0
S2140092307D020100917000004007002038070020E2
S21400924050010020780100204A0100207201002011
S2140092500C0200203407002000ED00E007020100A9
S214009260E2010020A00B002017020020BAF1020F36
S21400927040F0CA80B6F80500FCF7D2FF00283BD0C5
S214009280037B990714D52B880DF11A02013BADF824
S2140092901A30B6F805000BA9FDF74CFE024640B999
S2140092A00B23BDF81A200B993B70FEF7D3FE30E770
S2140092B052467368C3F30F236B800124584B3079F2
S2140092C069881C70587059801A71ABE7B6F80500AB
S2140092D0FCF7A6FF80B1037B1A070FD5E21E92B2F9
S2140092E05049B6F80500FDF7EFFD02460028E0D12C
S2140092F0132301463B70D8E70122DAE70322D8E7BA
S214009300B6F80500FCF78CFF00283FF402AF037B9D
S2140093105B077FF5FEAEE21E4249B6F8050092B244
S214009320FDF7D2FDF5E6631F9BB2022B01D0102B92
S2140093306AD10022CDE90022DBB23B4AB6F807101C
S214009340B6F80500FEF7D2FA4FF6FF7398420446C9
S2140093503FF44DAF2B880DF11A02043B0BA9ADF874
S2140093601A30FDF7E7FD024608B16C80A5E7092331
S214009370BDF81A203B70931C0B997B707C801CE711
S214009380631F9BB2022B01D0102B3DD14FF0000A79
S214009390CDE900AADBB20393234AB6F80710B6F865
S2140093A00500FEF7A3FA4FF6FF7B58450446039BDD
S2140093B03FF41DAF01305946CDE900AA1A4A80B2E3
S2140093C0FEF794FA82462B88584518BF00F1FF3AFC
S2140093D0A3F106030DF11A0220460BA918BF1FFAC7
S2140093E08AFAADF81A30FDF7A5FD02460028BCD172
S2140093F01123BDF81A203B70131D05200B997B70B6
S2140094007C80A7F804A050E7042256E7CDE90D3388
S214009410064B0BA90B9302230C93FEF7F3FD78E69D
S214009420E201002013020020150200201000002098
S2140094302DE9F04F012891B004D00024204611B049
S214009440BDE8F08F8A88002A00F0C781A24F97F8FF
S21400945000A0BAF1000F00F0C281A04D2C78002CBD
S214009460ECD1DFF8A8B29BF80040002CE5D19C4E6A
S214009470306802EB0009B9F5806F02D982242C709F
S214009480DCE7DFF874820968404406F0CDFDBAF1E7
S214009490020FC6F8009032D0B9F1030FCDD991482B
S2140094A0FCF7E6FE0378D8F80020012B3DD1436890
S2140094B0190E012903D1C3F307430A2B3DD98A4B62
S2140094C09A4240F0D8808368DA0334D502233B7092
S2140094D0FFF732F90020836AB3F5C04F06D21B6B44
S2140094E0B3F5C04F02D29B6809A998477F4B099AEB
S2140094F01A607F4B0A9A1A603B78022B9DD1DFF8E0
S2140095001092336899F80020082A59D1DFF8F081C4
S214009510774AD8F80000126803F0030AC118A1EBD6
S2140095200A0191420BD98324A9E76F4CA2420CBFD3
S21400953086248424A3E78624A1E788249FE76B4A31
S21400954017681F4407446B4BA7EB0A07186827F4F5
S214009550FF5727F01F07874209D9391A00F5005030
S214009560FCF7B8FE634B08B1852488E71F6000202F
S214009570836AB3F5C04F20D21A6BB2F5C04F1CD227
S21400958033681769D8F800105B4AA3EB0A03B8479C
S21400959007463268D8F80030A2EB0A021344504956
S2140095A05548C8F80030FEF7DFF9002FDCD199F8EF
S2140095B00030002B7FF441AF04E04FF48177E8E7FA
S2140095C0002A5AD133687F2B7FF637AFDFF8348115
S2140095D0D8F80000E8B9836AB3F5C04F13D2012368
S2140095E0CDE90A0009A88DF82430FCF741FE0A9B55
S2140095F01A0E6ED0012A67D1C3F307430A2B63D82D
S21400960067D14FF403703D4B186006F023FDC8F891
S214009610000000239B6AB3F5C04FA5D2374A9B6A69
S2140096201168D8F80000984700289DD1836AB3F5E2
S214009630C04F20D201233268CDE9070006A88DF876
S2140096401830D8F800A00392FCF712FE079B190EFC
S21400965011D00129039A03D1C3F307430A2B0AD971
S214009660002305A99B6A00915F6B5046224909AB0F
S214009670B84700284ED0842401E721490A681A44D6
S2140096800A600022926AB2F5C04F13D21D48D76A0C
S2140096901D49194A0068B8470746326810491648F7
S2140096A0FEF762F940F203239F4206D101238BF8AE
S2140096B00030C3E640F20227EFE740F201239F4264
S2140096C03FF475AF8024DAE600239B6A9B6B9847CD
S2140096D099E74FF4C07096E77E0B00207D0B0020C4
S2140096E0780B002000020020EB17A603F4130020DE
S2140096F0F81300204C130020780700209C0B002055
S214009700840B0020980B0020880B00207C0B002088
S214009710DC0100209DF8243089F800300393FCF724
S21400972011FE039B074648B3D0F834A0002B3FF445
S21400973085AE00230693042335200DF1130206A9F7
S2140097408DF81330FEF7E0FC069BDB071AD599F878
S2140097500030082B14D0BAF1000F42D05346102226
S2140097600CA903F12800039306F07CFC20B9039BA8
S2140097700A9A1B6A9A4205D8892480E68246D5E76B
S214009780304BECE797B14FF400513846FCF7A2FD9A
S21400979000287FF4E9AE2AF4FF504FF4005120F081
S2140097A01F00FCF797FD00287FF4DEAE99F8003026
S2140097B0082B18D1244B254A18684FF4005120F482
S2140097C0FF5323F01F031360FCF784FD00283FF4CB
S2140097D035AEC9E640F2022724E00D242EE68124A9
S2140097E02CE6002FCFD11A4B1A4F7B6000239B6AC2
S2140097F0B3F5C04FBFF4B8AE174A9B6A1168D8F8E5
S2140098000000984700287FF4AFAE836AB3F5C04FD8
S214009810E0D23946D3F82C90104A3368D8F80000C6
S214009820C847074632680E490C48FEF79DF840F2D6
S21400983003239F423FF43AAF40F201239F423FF496
S214009840FDAD3FE7C8020100F41300204C130020D2
S21400985081790000880B00209C0B002078070020F0
S214009860780B002008B5074B4FF000541B782BB13F
S214009870FEF762FF044B2360FCF7C0FC2360FCF796
S214009880BDFC00BFE901002002020FF010B5164C27
S214009890A37E5B0626D4FEF771F940F2E243A18C64
S2140098A0226803FB0122A37A226094F84F20134417
S2140098B02522B3FBF2F002FB10332289A372013299
S2140098C022810A22636802FB01336360238B5A1EDF
S2140098D022833BB9A27E42F04002A276034A13706E
S2140098E0FFF7C0FF10BD00BFD806002034070020D9
S2140098F0F0B5254C87B0A37E5A0640D4234A23F001
S214009900070343F00103A376136821891BB19288ED
S2140099108A4200D19847A37A1D48234493F82A30F8
S2140099206375FEF7E1F8D4E900561A4C1A4A6368E4
S21400993001205B7A7708D15CA5EB56060191FEF70D
S214009940FDF84FF4807302960026643501993D4475
S214009950ADF8143002AA3346206804958DF80C60E2
S2140099608DF8166000F022FC05460122314620687C
S21400997000F064FF2DB1FFF789FFFFF7B9FF07B0CE
S214009980F0BD064B2361FAE7D8060020DC0D002068
S214009990E40600205013002025030100099B000068
S2140099A002282DE9F0411DD002D8012807D0FEE795
S2140099B0032800F09E80FF2800F09B80F7E74E4CBF
S2140099C0637C990707D5FEF7D9F8FEF735F9637C6F
S2140099D06FF341036374637CDA0768D4BDE8F04133
S2140099E0FEF72AB94B78DB0740F183804C68227873
S2140099F002F00F08B8F1030F5BD0B8F1050F78D16D
S214009A003E498B7B03F00103B3EBD21F4FD10622F6
S214009A10083104F1080006F025FB0646002846D16A
S214009A20FEF7ACF8FEF7B4F8354D314607465C2233
S214009A30284606F006FBAB7EA5F8188043F0200308
S214009A40AB76627E237E012643EA0223AB84627FE6
S214009A50237F04F11E0043EA0223EB8494F82330AC
S214009A60C3F3040385F84F3094F82330C3F342134E
S214009A7085F850301B232B85FCF7A4FCD4F80E3059
S214009A80E27CEB60A37C2F6043EA0223227D2E75E6
S214009A9043EA02432B6195F84F30607DAB72E18A52
S214009AA03144FCF7CBFCFFF723FF164B1E70BDE8D6
S214009AB0F081124DAB7B03F00103B3EBD21FF6D15E
S214009AC0062205F1080104F1080006F0CBFA00288A
S214009AD0EDD1094C4FF4007394F83D20286802320B
S214009AE004F13C0100F085FE637C43F002036374DE
S214009AF0DDE7FEF743F871E734010020501300203D
S214009B00D80600203407002002282DE9F3478046B7
S214009B100C460BD003D8012800F0AE81FEE70328E0
S214009B2000F0B081FF2800F0AD81F7E74B78AB4D31
S214009B3013F0010300F0BC804A68AF7E117892F8FB
S214009B400090C1F3001161F38207AF76C9F3C0013C
S214009B50C7F30017B94240F0A88009F003010229B4
S214009B6000F0A180032918D0012940F09E804FF014
S214009B70000A567896B19A48818AFCF7A9FC0B1A17
S214009B809BB2BAF1000F04D0022B92BF0023023B17
S214009B909BB29E428CBF002301231E46A97EC9F3BA
S214009BA08009C1F3C002914508D082F00102D200BC
S214009BB042F0200221F028010A43AA762BB1AB7EA0
S214009BC087F0010767F30413AB76AB7E854F13F07F
S214009BD0200F11D0696D6FF34513AB76002969D05D
S214009BE03B7895F8582043F003033B707A70B81C16
S214009BF006F01AFA00236B657B48FCF769FC003810
S214009C0018BF0120AB7E774960F34103C3F3C0025F
S214009C10AB76C3F300139B0043EAC20343EA00108B
S214009C203B787A7823F01C03184338706F4F023263
S214009C304FF400733868D2B200F0DBFDAB7E646888
S214009C40D90709D56FF30003AB7600236B60FDF7E9
S214009C509FFF2860FCF706FC002E00F0A18023780A
S214009C6003F00303022B05D0032B3DD0012B40F05D
S214009C70978000265A486578818AFCF729FC081ADE
S214009C8080B226B1022892BF0020023880B28542F8
S214009C90ABB200F2858031465148A21C02B0BDE846
S214009CA0F047FDF7A9BA9A4663E70026334675E7FC
S214009CB01E468AE795F828304B48BA1C0DF1070176
S214009CC0FDF737FA10F0FF000BD09DF80730002B99
S214009CD008BF4FF001083B78787068F301033B70CB
S214009CE08AE74FF00108F6E7A3780C2B0AD80C2B6E
S214009CF00AD8DFE803F03F2B58090909090960096B
S214009D0009091800142B7FD0394A12782AB1162B6D
S214009D1000F09680182B00F0A2800722354802211A
S214009D20027043700DE00C2332484FF0FF32037090
S214009D300123827043700222037100230621C27041
S214009D40437102B0BDE8F047FDF798B9617A237A0F
S214009D50294A43EA012393801346284943F8061B01
S214009D60D4F80310C2F80610B4F807209A80627A76
S214009D709A7115E0627B237B1F4943EA02238B809E
S214009D800B461F4A43F8062BD4F80320C1F80620DA
S214009D90D4F807205A60B4F80B201A81627B9A72B6
S214009DA002B0BDE8F0872A89134B05329A80154A1F
S214009DB01A60E278DCE7D4F803303A8C0D4813409A
S214009DC003F0FF0322F0FF02134309210246C0F806
S214009DD00130002302F8011B5360B2E7D8060020CA
S214009DE0A00B0020FC130020B80C0020501300200D
S214009DF0D00D0020F00D0020DC0D002029640000AE
S214009E00A1640000A59E0000B4F80530B4F8032055
S214009E10DB08934228BF13462B8515231D480021D7
S214009E206FF004046FF027020370072381708171BE
S214009E3044700921C27003714471C271037280E7D5
S214009E402279E3781348134003F00303022B18BF6C
S214009E5001231722032102704370837071E7627931
S214009E60A1790D4B42EA01229A800C4A1A60D4F876
S214009E700320C3F8062093E7094B9B7E9A078FD4EE
S214009E805B078DD4FFF702FD02B0BDE8F047FFF791
S214009E902FBD00BFF00D0020DC0D0020AD630000DC
S214009EA0D8060020054A08B5937E43F04003937613
S214009EB00022034B1A70FFF7D5FC00BFD80600201F
S214009EC034070020EFF3108072B67047FEF776B8BE
S214009ED0F8B504464AB10125302626488D4006FBD3
S214009EE0040053B341F2100685513020072904FBC5
S214009EF000F025D8204E4FEA810E0644EFF310807E
S214009F0072B60F27D6F800C002FA0EF585EA0C05E1
S214009F1007FA0EF73D4085EA0C053560FEF74EF869
S214009F2052B9012202FA01F13022124802FB040063
S214009F30E3B141F21003C150F8BD42F21006D3E778
S214009F400E4EA1F108070644BF00EFF3108072B66C
S214009F504FF00F0CD6F800E002FA07F585EA0E057A
S214009F600CFA07F73D4085EA0E05D6E742F21003E5
S214009F70E1E700BF00C0034004C003400CC003403C
S214009F804FF48032064B5A6603F5E6235B69C3F34B
S214009F908512827003F03F021B0B427003707047FD
S214009FA00090004007B5014601A8FFF7E9FF9DF8BD
S214009FB0063001220B804FF4807300204B80054B47
S214009FC09B680A3303F01F0302FA03F34B6003B0E7
S214009FD05DF804FB0080E00FFEE7000008B5FDF723
S214009FE06DFE074B0748DA1C121AC11E22F0030248
S214009FF0994288BF0022044906F016F8FCF7C4F818
S21400A00018010020100000207043010038B50446F7
S21400A010054D00F0D9FB0FCC0FC594E8030085E88A
S21400A0200300002038BD00BFFC14002047F6FF7375
S21400A0309A42F0B563D0022963D8334BCF0003EBC6
S21400A040C10013F831108478012913D10025C37894
S21400A0501B1B9D4202D3E018C0B2F0BD591B4668D8
S21400A060A3EB510136F911609642D4BF0D4601F1BB
S21400A070FF33EEE740680028EFD0B0F900109142B9
S21400A08004DBB0F902109142B8BF114682883B4407
S21400A090FF2A19BFC8222826B0F90620B0F90860A2
S21400A0A0A2EB01020CBF0125002592FBF6F25F78B9
S21400A0B02A447B1E934228BF13464FF47A7E00EB59
S21400A0C0C305AE68EA88AC4611FB02621E4622EA69
S21400A0D0E272013302F5FA729F42B2FBFEF204D935
S21400A0E0BCF80CC008359445EBD200EBC60080885F
S21400A0F0904228BF1046A04238BF2046ACE7FF205B
S21400A100ABE70020A9E700BFFC140020F8B50D4619
S21400A11010B900242046F8BD0E4F3E68002EF8D138
S21400A12000F082F804460028F3D0386000F0B0F85B
S21400A130204600F0A2F838B130463E6000F0A8F89D
S21400A140204600F095F8E4E7002DE3D02046A84727
S21400A150E0E700BF141500200846114600F0AAB834
S21400A160F7B5114D04460F466E6801210020CDE973
S21400A1700032B047DDE9003206463946204601F097
S21400A18099FD044618B901202B68984704463EB14D
S21400A19000F0D2FB00B91CB100216B680846984756
S21400A1A0204603B0F0BD00BF24000020F7B5104DD8
S21400A1B004460F466B6801210020019298473946F5
S21400A1C00646019A204600F0C8FA044618B901204F
S21400A1D02B68984704463EB100F0AEFB00B91CB1B0
S21400A1E000216B6808469847204603B0F0BD00BFC4
S21400A1F02400002070470000431E033306D8044B9B
S21400A200984228BF1846642838BF6420704700BFAD
S21400A21040420F00431E012B03D9031F58425841EA
S21400A2207047012070470000F8B50546FDF742FD6F
S21400A23007460E4B1E6826B93846FDF7BFFE344665
S21400A24010E0B46884B1237C9C46DB070CD44CF049
S21400A250010C95E80F0084F810C084E80F0038461B
S21400A260FDF7ACFE2046F8BD3668E4E7180000208F
S21400A2704FF4CC72002105F0E4BE10B50446002170
S21400A28000F07CFA2046BDE8104001F06FBB0000ED
S21400A29010B5044618B9054B054A136010BD00F00A
S21400A2A0DBFCD4F89C30002BF6D1F4E7F5A10000D7
S21400A2B01C00002010B50C4600F0E4FC1CB100F0B9
S21400A2C035FD0128FBD1BDE81040024B00210320DC
S21400A2D05B6818472400002000F03CBE00F050BE2B
S21400A2E008B502460868FFF787FF08604868FFF76A
S21400A2F083FF48608868FFF77FFF8860C868FFF7BD
S21400A3007BFF0B69C860581C03D00B48834228BFEC
S21400A31003460B614B69581C03D00748834228BF8D
S21400A320034688694B61FFF767FFBDE80840886110
S21400A330104601F063BB00BF40420F002DE9F84F06
S21400A340D0F8943080460E4613B1038B8B4279D0FA
S21400A350D8F890B0BBF1000F44D0DBF80830002BE3
S21400A36040D0DBF80C20002A3CD0D8F8A4A0BAF1E4
S21400A370000F3AD04FF000094D464F4601E0DBF89B
S21400A3800830C5EBC50403EB8404E3890135B3420A
S21400A39017D8238AB34214D3B4F91230B8F924106C
S21400A3A003EAE372994254DD404698F8E010FFF75E
S21400A3B03DFE98F8153081468342274604D9DBF8DF
S21400A3C00C209542DBD347B300233A464046194655
S21400A3D0D0470020A8F81860C8F8947088F8E9906C
S21400A3E0BDE8F88F0320BDE8F88FD14647F6FF7525
S21400A3F054465146C4EBC40703EB8707FB89B342B8
S21400A4001AD83B8AB34217D3B7F91220AA4202EAF7
S21400A410E27204D14FF0FF09DBE70120E0E7404697
S21400A42098F8E010FFF702FE98F815308146834250
S21400A430CFD93946DBF80C200134A24205D9DBF827
S21400A4400830D7E70020BDE8F88F0029E5D00F4692
S21400A450BFE72746B8E700BF2DE9F041D0F8A48053
S21400A46082B004461E460D4617468DF80730B8F1F2
S21400A470000F2ED000220DF107031146C047D4F876
S21400A4809020194B20461A60184BD4F894201A6076
S21400A490174B1D6000F0F8FE05461FB9284602B0AF
S21400A4A0BDE8F081B0FA80F040F20D323321400969
S21400A4B000F0DCF93146204601F0DAF905460D4B8E
S21400A4C020461B68D4F894109847284602B0BDE88A
S21400A4D0F081417D90F8E9303246994228BF19460E
S21400A4E000F054FECBE700BF1C150020201500200E
S21400A4F0181500201C0000202DE9F04383B0054607
S21400A5000E4614461F4601F0E2FB01F0E9FB002868
S21400A5103CD1DFF81481D8F800301BB1D5F8902074
S21400A520934220D000F002FC01283FD1D8F800303A
S21400A530002B37D01A68002A34D0D5F89010096856
S21400A5408A4245D0D5F894301A68284601F084F936
S21400A55028BB01243B4622463146284603B0BDE8C8
S21400A560F043FFF779BF2D4B1B68002BDAD0D5F8E8
S21400A57094209342D6D12A4B1B689E420CD000F002
S21400A580D5FB0128E6D04FF0010911E00022234B4D
S21400A5901A6001F09DFBBCE707B124BB002003B0A6
S21400A5A0BDE8F083D5F890301968CBE74FF0000986
S21400A5B0012000F067FB00F0B9FB0128FBD1194B26
S21400A5C0002103205B689847B9F1000FAED0C1E7C1
S21400A5D0124A1268A2B11168D5F894201268914206
S21400A5E0B7D05968B1E70122D5F8A4408DF8072006
S21400A5F054B10022284611460DF10703A047CDE7C7
S21400A600D5F894201268ECE7697D95F8E93028467D
S21400A610994228BF194600F0B9FDBFE72015002073
S21400A62018150020240000201C150020F8B50E4642
S21400A6300546FDF73FFB314607462846FFF77EFEF8
S21400A640044620B13846FDF7B9FC2046F8BD03465F
S21400A650024631462846FFF74FFF04463846FDF7C8
S21400A660ADFC2046F8BD00BFF8B506460C4659B30B
S21400A6700B6843B11B68013326D0CB681BB18B68CF
S21400A680003B18BF01231846CB22412100F0EEF80C
S21400A690204602F033F800234FF6FF724FF01C0CF2
S21400A6A086F8EC30C6E92443E768D8B287420DD86E
S21400A6B0154600230B4A294613600B4A30461360A2
S21400A6C0FFF7B4FF2846F8BD0023DCE7A1680CFBC3
S21400A6D00011CD89954202D2002DEAD02A460133D8
S21400A6E0E3E700BF1C15002020150020008B7047F4
S21400A6F00A7838B505461046FFF78CFD60B14C78F1
S21400A7002046FFF787FD38B12243530704D4284676
S21400A710BDE8384000F06ABC012038BDFFF7E8BF4E
S21400A72010B504460878FFF775FD58B14A7810460C
S21400A730FFF770FD30B1042A04D02046BDE8104073
S21400A74000F08ABC012010BDFFF7EABF00F044BA53
S21400A750084601F089BC00F08BBB37B504460D46B1
S21400A7600192FFF763FF38B929462046019A03B0E5
S21400A770BDE8304000F062BB03B030BD01F0B8BAAF
S21400A78013B504460020019101F0B6FFD4F8A430BA
S21400A79033B92046019902B0BDE8104000F02CBD48
S21400A7A0022002B010BD38B5044648880D4601F0B8
S21400A7B0A3FFD4F8A4302BB929462046BDE838407C
S21400A7C000F094BC022038BD01F097BF38B50546AE
S21400A7D00C46FDF76FFA296BEB6A0C402343EB62DD
S21400A7E0FDF7ECFB00200CB9002138BD4FF40071DA
S21400A7F0FBE700F0C9BF00F0E8BF00004FF40073AD
S21400A80007B50A490DF10602ADF80630FFF7F3FF6B
S21400A810BDF80630B3F5007F05D1022808BF00203A
S21400A82003B05DF804FB0120FAE700BFC016002065
S21400A8300846114601F0A4BE00F092BF38B50446A3
S21400A840154609B100F0DFFF25B12046BDE83840C7
S21400A85000F0DCBF38BD0000024B1960024B1860E8
S21400A860FEE700BF20000020C418002008B550B93D
S21400A8700548064B01601A60054B1A68054B1A60BE
S21400A8801868FFF7E9FF08BD20000020C018002068
S21400A89014150020C4180020437C03B1084702208A
S21400A8A0704710B5044601F0F1FA2046BDE81040A6
S21400A8B0032100F051BAFFF7F4BF00000149FFF78B
S21400A8C0EBBF00BF61BE00000149FFF7E5BF00BF58
S21400A8D035BE000013B5427C0C46C2B1053A012ACB
S21400A8E08CBF002201224968019201F009FB206812
S21400A8F090FAA0F0000A00F0F7FBA17A2089019AEE
S21400A90081F0010101F02CFB002002B010BD0220F6
S21400A910FBE71FB5ADF80C309DF81830CDE90112F5
S21400A92001A98DF80E30FFF7D5FF05B05DF804FBE2
S21400A9300020704700207047014B1878704700BF12
S21400A940C8180020024BD868C0F30360704700BFE9
S21400A950000002A870470000431C07D06FF0FF02FB
S21400A960034B10405A62A3F580535862704700BFED
S21400A97000E000A8426B0E4B02F06002402A12D0A4
S21400A980602A03D0202A11D1012206E071B10A689C
S21400A990012A0BD94A6942F00102C3F888208022B6
S21400A9A0044B1A61704740F20112F6E70022F4E702
S21400A9B0003F00B0000002A808B5094AFFF7C2FF32
S21400A9C00B2806D00C2809D0092814BF0020022026
S21400A9D008BD106C10F48030F0D1F9E70220F7E7DC
S21400A9E0000002A84FF02A430121D3F8182159632A
S21400A9F052074FF4005148BF042203F50053196371
S21400AA0044BFA3F58053C3F81821704737B50C46EA
S21400AA10194D41B90A46072104F0D4FC174B6C6661
S21400AA205C6003B030BD0722114604F0CBFC072261
S21400AA30134B0121DA60237901A885F86430637925
S21400AA40019304F025FD019BC2B2D34000F00F0035
S21400AA5040EA031085F86500A3790A4A85F866304F
S21400AA60E37985F867302368AB6623790133136290
S21400AA7004F0C8FCD5E700BF003F00B0643F00B05C
S21400AA80006000A8004000A800F01803182B074B31
S21400AA9003D10022C3F88C207047010701D501229C
S21400AAA0F8E7C206F5D540F20112F3E7003F00B022
S21400AAB03D4B2DE9F3411E6840F2022317460B403A
S21400AAC000F00102134305460C4641D0880709D51D
S21400AAD0364BD3F8083F03F0C003402B02BF0221D9
S21400AAE0334B99604FF0000842B300230022002148
S21400AAF00120CDE9008803F0FDFA4FF0FF3002F0A8
S21400AB0055FD414670830120FFF7D4FB294B1B6C93
S21400AB10590208D4736B13F0800F4FF4001314BF60
S21400AB20254A264A136226490868FFF715FF4FF0A4
S21400AB30FF330B60337C43F008033374A20507D55C
S21400AB4001213046FFF742FE24F4007405430C430F
S21400AB50D6E942232A40234052EA030103D019498A
S21400AB60304609688847FB070FD51749174A086813
S21400AB700021136811600121154A117003B198472E
S21400AB80144B002102205B68984717F00E0F08D080
S21400AB9040F271123B21002002B0BDE8F041FFF701
S21400ABA065BE02B0BDE8F08114150020003000B08C
S21400ABB0001002A8000002A8005001A8006001A82A
S21400ABC0300000202C000020E8180020E4180020A8
S21400ABD0E018002024000020F7B5D0E942C7194647
S21400ABE0DDE9086304468CEA060587EA030015409B
S21400ABF0084085EA0C057840C4E9425000250B4021
S21400AC0022F0010043F4007306EA000243F0020358
S21400AC10CDE9005503F06EFA237C9A0717D5D4F8D1
S21400AC200C319B0513D54FF480312046FFF7CEFD3F
S21400AC30237C65F341032374D4E9422302400B408E
S21400AC4052EA030103D003492046096888470020DA
S21400AC5003B0F0BD2C00002038B10368044A002B76
S21400AC6008BF1346034A13607047014BFAE700BF5C
S21400AC7055A900002C000020014B0020D967704722
S21400AC80003F00B003282DE9F3413CD81F4B1E5C63
S21400AC901F4B1F5C1F4B13F80080FDF70BF8054693
S21400ACA003F004FC044640B100230022CDE9003343
S21400ACB001200023002103F01DFA3946304603F038
S21400ACC015FE42463946304603F082FEACB1124BC2
S21400ACD01B6C5B020AD4114B1B685B6B13F0800F76
S21400ACE04FF4001314BF0E4A0E4A13620E4908684A
S21400ACF0FFF732FE4FF0FF330B60284602B0BDE888
S21400AD00F041FDF75BB902B0BDE8F0810004010038
S21400AD100404010008040100000002A81415002025
S21400AD20005001A8006001A83000002008B5FFF719
S21400AD3009FE0138C0B20B2802D8054B185C08BDC6
S21400AD40044B5B6913F0060F0CBF01200420F6E7E6
S21400AD500C04010000C001A831F00F0210B50BD1A1
S21400AD60FFF7E4FF012809D1054CA36F23F00F007D
S21400AD7001431046A16710BD0120FCE70220FAE758
S21400AD80003F00B008B50D4B1A6C12F0A00F13D19F
S21400AD905B6C5B0701D5012008BD094BD3F8083F63
S21400ADA023F07F4323F0FF03002BF4D0FFF7CAFD08
S21400ADB0092801D00C28EED10020EDE7000002A8FB
S21400ADC0003000B0024638B588B9194B1B684BBB3B
S21400ADD00125C1F12704C4F11C03002BB8BF5B4258
S21400ADE0232B23DC7DB1134B1970002038BDFFF7F1
S21400ADF09DFF012818D10F4B002593F90040C4F1A0
S21400AE002704641AE7E79174FCF754FF0A4AE40241
S21400AE10136A04F4FF2423F4FF231C431462FDF793
S21400AE20CDF8E2E70320E1E70220DFE70120DDE7D7
S21400AE3014150020D818002000C000A8114603F002
S21400AE4093BB0000094B08465A6A91020BD4D3F80C
S21400AE500021D20708D4D3F8803013F4706F14BFE3
S21400AE600120002070470120704700BF004001A865
S21400AE7070B515460C46426B064682EA05030B4043
S21400AE80534043632D4A01F00B0323EA0501D164C6
S21400AE902B40A2F58052D364630710D50121FFF73B
S21400AEA0D1FF60B103F0C2FC4FF4007315F0040F3D
S21400AEB014BF234A234A53620422234B1A64E00633
S21400AEC006D515F0100F14BF00221B221F4B5A6523
S21400AED0210618D52A0620D54FF40012184B1A6200
S21400AEE0012203F58053C3F80021FCF7E3FE0E2190
S21400AEF00546032002F0FAFA40F20122134B2846D8
S21400AF00DA62FDF75BF814F0600F04D03046D6F82E
S21400AF109810FFF72FFD002070BD0D4B1B6C5B02D9
S21400AF20F1D44FF4001196F8D230064A1162002B85
S21400AF30E9D00122024BC3F80021E4E7006000A834
S21400AF40005001A8006001A8002002A8004000A848
S21400AF50000002A8014B186A02F0DABA004001A805
S21400AF60D0F898304BB11A68022A06D993F8250013
S21400AF7028B11B6AB3FBF0F07047FFF7ADB9704716
S21400AF80014B186A02F0ECBA004001A8D0F89820ED
S21400AF9072B11368022B0BD9536A13F47F4FC3F3B5
S21400AFA0072007D0126ADBB25343B3FBF0F07047BA
S21400AFB0FFF794B970470000437C5A1F012A01D955
S21400AFC0082B05D14B7B2BB1012B05D0022B05D0CE
S21400AFD0FFF7DCBF024870470248704702487047D8
S21400AFE020A1070048E8010040420F0070B50E4659
S21400AFF0FCF760FE0546FFF7DFFC044620B1284656
S21400B000FCF7DCFF204670BD03F010FC104B3278D6
S21400B010D3F8083F022A23F0F00315D0042A0CBF09
S21400B0200222002243EA02137278022A0ED0042A71
S21400B0300CBF0222002243EA8213054AC2F8083FE8
S21400B0400422044B1A64DAE70122EBE70122F2E756
S21400B050003000B0002002A838B50D46FCF72AFEE6
S21400B06004461E4AFFF76EFC062826D804282BD86E
S21400B070032829D003F0DAFB194B2A78D3F8083FC7
S21400B080022A23F00F0324D0042A0CBF0222002237
S21400B09013436A78022A1ED0042A0CBF022200221A
S21400B0A043EA82030E4A2046C2F8083F04220D4BAC
S21400B0B01A64FCF783FF00200AE00728DAD1D2F8EA
S21400B0C04431002BCED1D5E72046FCF777FF02208F
S21400B0D038BD0122DCE70122E2E700BF000002A83B
S21400B0E0003000B0002002A802F0B8BAF8B50E781A
S21400B0F00446022E0D4690F8E0700AD1002001F0BA
S21400B10041FB00283BD1012001F03CFB002818BF82
S21400B1100126304601F036FB98B384F8E060AB8831
S21400B12004F1E006A4F8E4306B883046A4F8E23078
S21400B130AB88A364FF23A37501F0E6FA054608BBB7
S21400B140304601F015FB0546E0B9D4F8943053B10B
S21400B15094F8E010B94206D02046B3F91220FEF764
S21400B16065FF84F8E900204601F05EFB0121A4F8A3
S21400B170E40004F1A80002F0B3FD2846F8BD00265E
S21400B180C7E70125032384F8E030F6E770B50546E7
S21400B19090F8E0000C4603282AD0FF292AD001F0B8
S21400B1A035FB064695F8E00001F022FBA04210D3DE
S21400B1B023469E4295F8E00011DB01F027FB04468B
S21400B1C02046AC7501F028FCA0F1FF035842584118
S21400B1D070BD95F8E00001F00BFB0346E9E701F0CF
S21400B1E007FBA042ECD295F8E00001F001FBE6E791
S21400B1F00220EDE70120EBE738B590F8E030044692
S21400B200032B3BD0D0F894504175A5B3D0F8A430AA
S21400B210BBB990F8E9308B4219D300222046FFF7DD
S21400B220B5FF054658B9164B1B78012B07D82046A4
S21400B23001F0FAFA012104F1A80002F051FD2846B7
S21400B24038BDB0F92420B5F912309A42E5DD002267
S21400B250204694F8E910FFF799FF05460028EED13E
S21400B260C4F894002046FFF741FA01462046BDE8A0
S21400B2703840FFF7DBB9FF238375E0E70225DEE7FA
S21400B2803E0000200000000070B5C36B8AB0012BA2
S21400B29003D1002528460AB070BD0446604901F077
S21400B2A0FDFED4F89460258BC4F8980026B1336868
S21400B2B013B15B68002B70D1FCF7FCFCFCF77EFE3C
S21400B2C001231A46D4F898008DF80E30B389EB1A8D
S21400B2D09BB2D6E90115ADF80C3005FB0311514BB6
S21400B2E002911B68834213D010B10368002B5BD118
S21400B2F09FED497B002384ED2A7B0146C4F8B030DD
S21400B3002046FFF737FBD4F8980002999DF80E20E8
S21400B310099004AB204602F031FA002839D1424A9F
S21400B3204249FFF70FFB431EDBB20B2B2CD8D35C36
S21400B330012BF6D13E4A3F49136CD801FCD40B6C66
S21400B340DB07F9D404A901A802F0E6FB054600BB1A
S21400B350237C60F34103237400F0C2FED4F89430DB
S21400B3605B691A68431EDBB2FD2B009225D9D61CFA
S21400B37023D9314B01321B6827D0DA1C8AD8024603
S21400B3806946204600931BE04B6913F0060FD1D0A8
S21400B390C7E7022528460AB070BD1A68032A8BD96B
S21400B3A09B6A5A0E13468FE70369002BA0D0D3E999
S21400B3B000129B68C4E92A129FE7024669462046A7
S21400B3C000F014FE28460AB070BDD91C05D8024607
S21400B3D069462046009300F009FED4F80C319B0520
S21400B3E004D4237C43F00203237453E74FF48031E4
S21400B3F02046FFF7EBF9D4F80821D4F80C310240C8
S21400B4000B4052EA03013FF445AF0C492046096859
S21400B41088473FE7AFF30080000000000000000010
S21400B420FC4F00B0D41800200C04010000C001A896
S21400B430000002A800C002A84C0000202C0000203B
S21400B4404FF4807103F0D2BF38B590F8EC40054653
S21400B450ACB1FCF72FFC1F22094B013C5A6214408A
S21400B460A3F580535C62D5F8F020A3F580539A6666
S21400B470D5F8F420DA66BDE83840FCF79FBD38BD45
S21400B480006001A810B58B780246012B0C4600F22E
S21400B4908B80CB78012B00F287800878012800F299
S21400B4A08380497804297FD809B1012B7CD10128F3
S21400B4B043D02068C2F8F8006378002B3ED13B49A1
S21400B4C0C1F88C304FF06051394B1962394B1B78FC
S21400B4D013B10621384B99674FF08051374BD9642A
S21400B4E0A3F500531B6C5B0208D4536B13F0800F5C
S21400B4F04FF4001314BF324A2D4A13624FF4807281
S21400B500304BC3F81821C3F81421A378002B42D17E
S21400B5104FF02A4340F6FF721A63E378002B3DD1C2
S21400B5204FF02A4340F6FF721A676022264BDA6411
S21400B53003F5E833402200201A6410BD013BDBB25D
S21400B540032BE2D84FF06051204A52F82330184AB5
S21400B55043F400131162A2F5805213620423A2F58D
S21400B5608832C2F88C30936F23F0060343F004034E
S21400B57093674FF08052164BDA6402F09FFF002864
S21400B580C3D04FF480730F4AC2F81431A2F580522C
S21400B590C2F81831B9E7FFF725FABEE76022064B76
S21400B5A0DA6403F5D833C5E70120C6E7004000A8F3
S21400B5B0006001A8D0180020006000A8002002A8A3
S21400B5C0005001A8002000AA005000A8F0030100C7
S21400B5D0001002A82DE9F74F07461546084619B988
S21400B5E0012003B0BDE8F08F002AF9D0032904D863
S21400B5F0002100F0C5FF0028F2D0B0F900108378D3
S21400B60000290488067990F805B0B0F8068003F0A3
S21400B6100702C0F29E80D01F41424141052A29728E
S21400B62094BF0021C3F30011C3F380106972990917
S21400B630287301F00201C3F3C0000143C3F34013B3
S21400B6406973AB73EE737B6BDB067CD4063A012A18
S21400B65079D8414B01265B6D4FF02A431A6DDB6C9F
S21400B660063C03F0070306339E40013E344042F09A
S21400B670005919F804A07B7CAAF1320A01344FFA6B
S21400B6808AFA344083B30020D7F8A0300BB1514675
S21400B6909847631CE87285F80AA0334019F803102F
S21400B6A00133334019F803200133334041EA0221C5
S21400B6B019F803200133334019F8033041EA0241F8
S21400B6C041EA036118F4804305D0244BDB6F002B5E
S21400B6D014BF0023022338466A7B02F0E0FB0623F1
S21400B6E02860AB7100207CE7D7F8983019F8042062
S21400B6F053B11968022907D993F8243018F4805FEB
S21400B70011D15000C0B2BFE7294638460192FFF774
S21400B71053FC00903846FFF723FC009B019AB3FBCE
S21400B720F0F0C3B2EAE7C8F30B00C0000BB1B0FB01
S21400B730F3F08345A7D80028A5D0CBEB0B2BBBFB9B
S21400B740F0F0C043DEE70020802328606B81A871FC
S21400B75047E7022045E700BF004000A8003F00B0D2
S21400B760F8B5064614469779FFF734FF054648B9FC
S21400B770A3793BB121463046A771FFF71DFC214651
S21400B78002F05EFB2846F8BD084610B510F003042C
S21400B790114618D1B3FA83F3192B12D0C3F119034B
S21400B7A0DBB2062B28BF06239C1DE2B20124944080
S21400B7B0A4B2A1421A4628BF214600F0F3FC204658
S21400B7C010BD2346F0E70024F9E711F0030308460E
S21400B7D010B516D114883F2C13D9B4FA84F4192C5A
S21400B7E005D0C4F11903DBB2062B28BF0623194681
S21400B7F00633DCB20123A340138000F0F1FC0020E6
S21400B80010BD0120FCE7FFF7EDB8000070B54FF063
S21400B8102A434FF48064084DD3F818610020C5F819
S21400B820184103F0B1F84FF400532B67730544BF7B
S21400B830024BC3F8184170BD002000AA001000AAF1
S21400B840082310B1024A13647047024AFBE700BFA0
S21400B850001002A8002002A810B5144608460121D0
S21400B86001F0BCFD2046012101F0B8FD002010BD0E
S21400B870F8B504460D4619B990F91030002B31DBA7
S21400B8804FF6FF73A18BD4F89860994204D0284BEA
S21400B8901B680BB120469847264F3B68B3423BD007
S21400B8A0254B1B683BB11EB13268002A36D0B668FD
S21400B8B03146204698470726204600F0B5FF2DB3B0
S21400B8C003F0A0FD94F912102046FFF77BFA06203D
